{
  "_format": "hh-sol-artifact-1",
  "contractName": "Transactions",
  "sourceName": "contracts/Transactions.sol",
  "abi": [
    {
      "inputs": [],
      "stateMutability": "nonpayable",
      "type": "constructor"
    },
    {
      "anonymous": false,
      "inputs": [
        {
          "indexed": true,
          "internalType": "address",
          "name": "sender",
          "type": "address"
        },
        {
          "indexed": true,
          "internalType": "address",
          "name": "receiver",
          "type": "address"
        },
        {
          "indexed": false,
          "internalType": "uint256",
          "name": "amount",
          "type": "uint256"
        },
        {
          "indexed": false,
          "internalType": "string",
          "name": "remark",
          "type": "string"
        },
        {
          "indexed": false,
          "internalType": "uint256",
          "name": "timestamp",
          "type": "uint256"
        }
      ],
      "name": "Transfer",
      "type": "event"
    },
    {
      "inputs": [],
      "name": "getAllTransactions",
      "outputs": [
        {
          "components": [
            {
              "internalType": "address",
              "name": "sender",
              "type": "address"
            },
            {
              "internalType": "address",
              "name": "receiver",
              "type": "address"
            },
            {
              "internalType": "uint256",
              "name": "amount",
              "type": "uint256"
            },
            {
              "internalType": "string",
              "name": "remark",
              "type": "string"
            },
            {
              "internalType": "uint256",
              "name": "timestamp",
              "type": "uint256"
            }
          ],
          "internalType": "struct Transactions.TransferStruct[]",
          "name": "",
          "type": "tuple[]"
        }
      ],
      "stateMutability": "view",
      "type": "function"
    },
    {
      "inputs": [
        {
          "internalType": "address",
          "name": "addr",
          "type": "address"
        }
      ],
      "name": "getBalance",
      "outputs": [
        {
          "internalType": "uint256",
          "name": "",
          "type": "uint256"
        }
      ],
      "stateMutability": "view",
      "type": "function"
    },
    {
      "inputs": [],
      "name": "getOwner",
      "outputs": [
        {
          "internalType": "address",
          "name": "",
          "type": "address"
        }
      ],
      "stateMutability": "view",
      "type": "function"
    },
    {
      "inputs": [],
      "name": "getTransactionsCount",
      "outputs": [
        {
          "internalType": "uint256",
          "name": "",
          "type": "uint256"
        }
      ],
      "stateMutability": "view",
      "type": "function"
    },
    {
      "inputs": [
        {
          "internalType": "bytes32",
          "name": "message",
          "type": "bytes32"
        },
        {
          "internalType": "bytes",
          "name": "sig",
          "type": "bytes"
        }
      ],
      "name": "recoverSigner",
      "outputs": [
        {
          "internalType": "address",
          "name": "",
          "type": "address"
        }
      ],
      "stateMutability": "pure",
      "type": "function"
    },
    {
      "inputs": [
        {
          "internalType": "address payable",
          "name": "receiver",
          "type": "address"
        },
        {
          "internalType": "uint256",
          "name": "amount",
          "type": "uint256"
        },
        {
          "internalType": "string",
          "name": "remark",
          "type": "string"
        }
      ],
      "name": "sendMoney",
      "outputs": [
        {
          "internalType": "bool",
          "name": "success",
          "type": "bool"
        }
      ],
      "stateMutability": "nonpayable",
      "type": "function"
    },
    {
      "inputs": [
        {
          "internalType": "string",
          "name": "message",
          "type": "string"
        }
      ],
      "name": "signMessage",
      "outputs": [
        {
          "internalType": "bytes32",
          "name": "",
          "type": "bytes32"
        }
      ],
      "stateMutability": "pure",
      "type": "function"
    },
    {
      "inputs": [
        {
          "internalType": "bytes",
          "name": "sig",
          "type": "bytes"
        }
      ],
      "name": "splitSignature",
      "outputs": [
        {
          "internalType": "bytes32",
          "name": "r",
          "type": "bytes32"
        },
        {
          "internalType": "bytes32",
          "name": "s",
          "type": "bytes32"
        },
        {
          "internalType": "uint8",
          "name": "v",
          "type": "uint8"
        }
      ],
      "stateMutability": "pure",
      "type": "function"
    }
  ],
  "bytecode": "0x608060405234801561001057600080fd5b50336000806101000a81548173ffffffffffffffffffffffffffffffffffffffff021916908373ffffffffffffffffffffffffffffffffffffffff1602179055503373ffffffffffffffffffffffffffffffffffffffff1631600260003273ffffffffffffffffffffffffffffffffffffffff1673ffffffffffffffffffffffffffffffffffffffff168152602001908152602001600020819055506114f5806100bb6000396000f3fe608060405234801561001057600080fd5b50600436106100885760003560e01c8063893d20e81161005b578063893d20e81461012957806397aba7f914610147578063a7bb580314610177578063f8b2cb4f146101a957610088565b8063125c5df71461008d57806327506f53146100bd578063578cb8f9146100db5780637229a894146100f9575b600080fd5b6100a760048036038101906100a29190610a21565b6101d9565b6040516100b49190610aab565b60405180910390f35b6100c56104ff565b6040516100d29190610cad565b60405180910390f35b6100e36106b0565b6040516100f09190610cde565b60405180910390f35b610113600480360381019061010e9190610cf9565b6106ba565b6040516101209190610d5b565b60405180910390f35b6101316106ea565b60405161013e9190610d85565b60405180910390f35b610161600480360381019061015c9190610e6d565b610713565b60405161016e9190610d85565b60405180910390f35b610191600480360381019061018c9190610ec9565b610782565b6040516101a093929190610f2e565b60405180910390f35b6101c360048036038101906101be9190610f91565b6107ea565b6040516101d09190610cde565b60405180910390f35b600082600260008060009054906101000a900473ffffffffffffffffffffffffffffffffffffffff1673ffffffffffffffffffffffffffffffffffffffff1673ffffffffffffffffffffffffffffffffffffffff16815260200190815260200160002054101561024c57600090506104f8565b82600260008060009054906101000a900473ffffffffffffffffffffffffffffffffffffffff1673ffffffffffffffffffffffffffffffffffffffff1673ffffffffffffffffffffffffffffffffffffffff16815260200190815260200160002060008282546102bc9190610fed565b9250508190555082600260008673ffffffffffffffffffffffffffffffffffffffff1673ffffffffffffffffffffffffffffffffffffffff16815260200190815260200160002060008282546103129190611021565b92505081905550600180600082825461032b9190611021565b9250508190555060036040518060a0016040528060008054906101000a900473ffffffffffffffffffffffffffffffffffffffff1673ffffffffffffffffffffffffffffffffffffffff1681526020018673ffffffffffffffffffffffffffffffffffffffff16815260200185815260200184815260200142815250908060018154018082558091505060019003906000526020600020906005020160009091909190915060008201518160000160006101000a81548173ffffffffffffffffffffffffffffffffffffffff021916908373ffffffffffffffffffffffffffffffffffffffff16021790555060208201518160010160006101000a81548173ffffffffffffffffffffffffffffffffffffffff021916908373ffffffffffffffffffffffffffffffffffffffff16021790555060408201518160020155606082015181600301908161047d9190611261565b506080820151816004015550508373ffffffffffffffffffffffffffffffffffffffff163373ffffffffffffffffffffffffffffffffffffffff167fc4b32d7ff75a51e487f3cbb5d3202f2efecca1f4c2b987e0039c1d3220b48a838585426040516104eb9392919061137d565b60405180910390a3600190505b9392505050565b60606003805480602002602001604051908101604052809291908181526020016000905b828210156106a757838290600052602060002090600502016040518060a00160405290816000820160009054906101000a900473ffffffffffffffffffffffffffffffffffffffff1673ffffffffffffffffffffffffffffffffffffffff1673ffffffffffffffffffffffffffffffffffffffff1681526020016001820160009054906101000a900473ffffffffffffffffffffffffffffffffffffffff1673ffffffffffffffffffffffffffffffffffffffff1673ffffffffffffffffffffffffffffffffffffffff1681526020016002820154815260200160038201805461060c90611084565b80601f016020809104026020016040519081016040528092919081815260200182805461063890611084565b80156106855780601f1061065a57610100808354040283529160200191610685565b820191906000526020600020905b81548152906001019060200180831161066857829003601f168201915b5050505050815260200160048201548152505081526020019060010190610523565b50505050905090565b6000600154905090565b6000816040516020016106cd91906113f7565b604051602081830303815290604052805190602001209050919050565b60008060009054906101000a900473ffffffffffffffffffffffffffffffffffffffff16905090565b60008060008061072285610782565b9250925092506001868285856040516000815260200160405260405161074b949392919061140e565b6020604051602081039080840390855afa15801561076d573d6000803e3d6000fd5b50505060206040510351935050505092915050565b600080600060418451146107cb576040517f08c379a00000000000000000000000000000000000000000000000000000000081526004016107c29061149f565b60405180910390fd5b6020840151925060408401519150606084015160001a90509193909250565b6000600260008373ffffffffffffffffffffffffffffffffffffffff1673ffffffffffffffffffffffffffffffffffffffff168152602001908152602001600020549050919050565b6000604051905090565b600080fd5b600080fd5b600073ffffffffffffffffffffffffffffffffffffffff82169050919050565b600061087282610847565b9050919050565b61088281610867565b811461088d57600080fd5b50565b60008135905061089f81610879565b92915050565b6000819050919050565b6108b8816108a5565b81146108c357600080fd5b50565b6000813590506108d5816108af565b92915050565b600080fd5b600080fd5b6000601f19601f8301169050919050565b7f4e487b7100000000000000000000000000000000000000000000000000000000600052604160045260246000fd5b61092e826108e5565b810181811067ffffffffffffffff8211171561094d5761094c6108f6565b5b80604052505050565b6000610960610833565b905061096c8282610925565b919050565b600067ffffffffffffffff82111561098c5761098b6108f6565b5b610995826108e5565b9050602081019050919050565b82818337600083830152505050565b60006109c46109bf84610971565b610956565b9050828152602081018484840111156109e0576109df6108e0565b5b6109eb8482856109a2565b509392505050565b600082601f830112610a0857610a076108db565b5b8135610a188482602086016109b1565b91505092915050565b600080600060608486031215610a3a57610a3961083d565b5b6000610a4886828701610890565b9350506020610a59868287016108c6565b925050604084013567ffffffffffffffff811115610a7a57610a79610842565b5b610a86868287016109f3565b9150509250925092565b60008115159050919050565b610aa581610a90565b82525050565b6000602082019050610ac06000830184610a9c565b92915050565b600081519050919050565b600082825260208201905092915050565b6000819050602082019050919050565b6000610afd82610847565b9050919050565b610b0d81610af2565b82525050565b610b1c816108a5565b82525050565b600081519050919050565b600082825260208201905092915050565b60005b83811015610b5c578082015181840152602081019050610b41565b60008484015250505050565b6000610b7382610b22565b610b7d8185610b2d565b9350610b8d818560208601610b3e565b610b96816108e5565b840191505092915050565b600060a083016000830151610bb96000860182610b04565b506020830151610bcc6020860182610b04565b506040830151610bdf6040860182610b13565b5060608301518482036060860152610bf78282610b68565b9150506080830151610c0c6080860182610b13565b508091505092915050565b6000610c238383610ba1565b905092915050565b6000602082019050919050565b6000610c4382610ac6565b610c4d8185610ad1565b935083602082028501610c5f85610ae2565b8060005b85811015610c9b5784840389528151610c7c8582610c17565b9450610c8783610c2b565b925060208a01995050600181019050610c63565b50829750879550505050505092915050565b60006020820190508181036000830152610cc78184610c38565b905092915050565b610cd8816108a5565b82525050565b6000602082019050610cf36000830184610ccf565b92915050565b600060208284031215610d0f57610d0e61083d565b5b600082013567ffffffffffffffff811115610d2d57610d2c610842565b5b610d39848285016109f3565b91505092915050565b6000819050919050565b610d5581610d42565b82525050565b6000602082019050610d706000830184610d4c565b92915050565b610d7f81610af2565b82525050565b6000602082019050610d9a6000830184610d76565b92915050565b610da981610d42565b8114610db457600080fd5b50565b600081359050610dc681610da0565b92915050565b600067ffffffffffffffff821115610de757610de66108f6565b5b610df0826108e5565b9050602081019050919050565b6000610e10610e0b84610dcc565b610956565b905082815260208101848484011115610e2c57610e2b6108e0565b5b610e378482856109a2565b509392505050565b600082601f830112610e5457610e536108db565b5b8135610e64848260208601610dfd565b91505092915050565b60008060408385031215610e8457610e8361083d565b5b6000610e9285828601610db7565b925050602083013567ffffffffffffffff811115610eb357610eb2610842565b5b610ebf85828601610e3f565b9150509250929050565b600060208284031215610edf57610ede61083d565b5b600082013567ffffffffffffffff811115610efd57610efc610842565b5b610f0984828501610e3f565b91505092915050565b600060ff82169050919050565b610f2881610f12565b82525050565b6000606082019050610f436000830186610d4c565b610f506020830185610d4c565b610f5d6040830184610f1f565b949350505050565b610f6e81610af2565b8114610f7957600080fd5b50565b600081359050610f8b81610f65565b92915050565b600060208284031215610fa757610fa661083d565b5b6000610fb584828501610f7c565b91505092915050565b7f4e487b7100000000000000000000000000000000000000000000000000000000600052601160045260246000fd5b6000610ff8826108a5565b9150611003836108a5565b925082820390508181111561101b5761101a610fbe565b5b92915050565b600061102c826108a5565b9150611037836108a5565b925082820190508082111561104f5761104e610fbe565b5b92915050565b7f4e487b7100000000000000000000000000000000000000000000000000000000600052602260045260246000fd5b6000600282049050600182168061109c57607f821691505b6020821081036110af576110ae611055565b5b50919050565b60008190508160005260206000209050919050565b60006020601f8301049050919050565b600082821b905092915050565b6000600883026111177fffffffffffffffffffffffffffffffffffffffffffffffffffffffffffffffff826110da565b61112186836110da565b95508019841693508086168417925050509392505050565b6000819050919050565b600061115e611159611154846108a5565b611139565b6108a5565b9050919050565b6000819050919050565b61117883611143565b61118c61118482611165565b8484546110e7565b825550505050565b600090565b6111a1611194565b6111ac81848461116f565b505050565b5b818110156111d0576111c5600082611199565b6001810190506111b2565b5050565b601f821115611215576111e6816110b5565b6111ef846110ca565b810160208510156111fe578190505b61121261120a856110ca565b8301826111b1565b50505b505050565b600082821c905092915050565b60006112386000198460080261121a565b1980831691505092915050565b60006112518383611227565b9150826002028217905092915050565b61126a82610b22565b67ffffffffffffffff811115611283576112826108f6565b5b61128d8254611084565b6112988282856111d4565b600060209050601f8311600181146112cb57600084156112b9578287015190505b6112c38582611245565b86555061132b565b601f1984166112d9866110b5565b60005b82811015611301578489015182556001820191506020850194506020810190506112dc565b8683101561131e578489015161131a601f891682611227565b8355505b6001600288020188555050505b505050505050565b600082825260208201905092915050565b600061134f82610b22565b6113598185611333565b9350611369818560208601610b3e565b611372816108e5565b840191505092915050565b60006060820190506113926000830186610ccf565b81810360208301526113a48185611344565b90506113b36040830184610ccf565b949350505050565b600081905092915050565b60006113d182610b22565b6113db81856113bb565b93506113eb818560208601610b3e565b80840191505092915050565b600061140382846113c6565b915081905092915050565b60006080820190506114236000830187610d4c565b6114306020830186610f1f565b61143d6040830185610d4c565b61144a6060830184610d4c565b95945050505050565b7f696e76616c6964207369676e6174757265206c656e6774680000000000000000600082015250565b6000611489601883611333565b915061149482611453565b602082019050919050565b600060208201905081810360008301526114b88161147c565b905091905056fea264697066735822122076580974e5f378a82d994f1884b8732e3b990bb596a3b39a61f68aa8e88af68764736f6c63430008110033",
  "linkReferences": {},
  "deployedLinkReferences": {}
}